:100000000C9430000C9406050C9406050C94030225
:100010000C9406050C9406050C9406050C945804E3
:100020000C9406050C9406050C949F020C9406058E
:100030000C9406050C9406050C9406050C94060514
:100040000C9406050C9406050C9406050C94060504
:100050000C94060500600081800081008B000A1E60
:1000600011241FBECFE5D8E0DEBFCDBFE4E5F0E050
:1000700040E017C0B591A59135912591059107FDF7
:100080000CC095918591EF01F92FE82F05900D9205
:10009000A217B307D9F7FE0104C01D92A217B30738
:1000A000E1F7E036F40731F70E94CA030C94990493
:0400B000F894FFCFF2
:1000B4000FC00E94C10438F00E94C80420F09523A8
:1000C40011F00C94D5040C94030511240C94BB0476
:1000D4000E94160370F3959FC1F3950F50E0551FCE
:1000E400629FF001729FBB27F00DB11D639FAA2789
:1000F400F00DB11DAA1F649F6627B00DA11D661FD8
:10010400829F2227B00DA11D621F739FB00DA11DF8
:10011400621F839FA00D611D221F749F3327A00DB2
:10012400611D231F849F600D211D822F762F6A2F4E
:1001340011249F5750409AF0F1F088234AF0EE0FB3
:10014400FF1FBB1F661F771F881F91505040A9F7E0
:100154009E3F510580F00C94D5040C94BB045F3F82
:10016400E4F3983ED4F3869577956795B795F7951C
:10017400E7959F5FC1F7FE2B880F911D9695879594
:0401840097F908954A
:100188000E94EB040E94EF040E94F704809166002D
:1001980090916700019739F480916400909165000F
:1001A8000E940B0102C00E9408050E94F0038130E2
:1001B80089F480916400909165008B34910550F426
:1001C80005969093650080936400109262000E94E7
:1001D8000B0114C00E940204813081F480916400F4
:1001E800909165008432910548F0059790936500D9
:1001F80080936400109262000E940B016091640079
:0E0208007091650080E090E00E943803089538
:100216000F931F93CF93DF93AC019C01ADECBCEC25
:100226000E946704EC01D695C795D695C795D695D5
:10023600C795CE01880F991FCC0FDD1FCC0FDD1F90
:10024600CC0FDD1FC80FD91FCA018C1B9D0BEC01FB
:10025600CA016AE070E00E94A2038B0181E00E945D
:100266001404CE0199270E94CF0481EE94E00197F1
:10027600F1F700C0000082E00E941404C80199272B
:100286000E94CF0481EE94E00197F1F700C00000D0
:0A029600DF91CF911F910F910895A1
:1002A00080916100813009F50E944904BC0180E021
:1002B00090E00E948D0120E030E040E05FE30E948A
:1002C000FF040E94700270936900609368008DE6DD
:1002D00090E00E948E038DE690E00E94550390937B
:1002E0006B0080936A001092610080916800909189
:1002F00069000E940B010E94CA010E94F003813034
:1003000021F00E940204813039F40E94B30410925B
:0A031000620082E08093630008950C
:10031A00E89409C097FB3EF4909580957095619595
:10032A007F4F8F4F9F4F9923A9F0F92F96E9BB274B
:10033A009395F695879577956795B795F111F8CFC7
:10034A00FAF4BB0F11F460FF1BC06F5F7F4F8F4F32
:10035A009F4F16C0882311F096E911C0772321F028
:10036A009EE8872F762F05C0662371F096E8862FC0
:10037A0070E060E02AF09A95660F771F881FDAF717
:0A038A00880F9695879597F908955E
:1003940080916A0090916B00AC014B5F5F4F20919C
:1003A4006400309165002417350768F4BC0165507A
:1003B40071096217730738F40E94EB040E94EF047A
:1003C4000E94F70408952417350738F40E94EB04BB
:1003D4000E94E7040E94F304089505978217930787
:1003E40078F40E94E3040E94EF04809166009091E7
:1003F4006700019719F40E94F30408950E94F7041A
:02040400089559
:100406001F920F920FB60F9211242F933F934F9383
:100416005F936F937F938F939F93AF93BF93EF9366
:10042600FF938091630081110CC081E0809363008B
:1004360080E090E00E94A40490936500809364009D
:1004460005C08150823010F410926300FF91EF9145
:10045600BF91AF919F918F917F916F915F914F91D6
:0E0466003F912F910F900FBE0F901F90189591
:100474000E94F4020E9472030E94DF040E94DB04C3
:100484000E94AC040E9483040E9426040E94DD039F
:100494000E94FB041092630080E090E00E94A40498
:1004A4008F3F910549F080E090E00E94A40490936E
:1004B40065008093640006C082E390E09093650039
:1004C400809364000E94CD02609164007091650085
:0C04D400772780E090E00E943803089534
:1004E0000E941E0388F09F5798F0B92F9927B751A3
:1004F000B0F0E1F0660F771F881F991F1AF0BA95C8
:10050000C9F714C0B13091F00E94BA04B1E0089567
:100510000C94BA04672F782F8827B85F39F0B93F59
:10052000CCF3869577956795B395D9F73EF490957A
:0E0530008095709561957F4F8F4F9F4F089576
:10053E001F920F920FB60F9211242F933F938F930A
:10054E009F938091630081508230B8F48091620055
:10055E008F5F80936200982F937051F42091660004
:10056E003091670091E02927309367002093660051
:10057E00853118F081E0809363009F918F913F91B8
:0C058E002F910F900FBE0F901F9018953A
:10059A000E944904BC0180E090E00E948D0120E0A5
:1005AA0030E040E05FE30E94FF040E94700280E0B6
:1005BA0009C0E82FF0E0EE0FFF1FE359FF4F7183E8
:1005CA0060838F5F8A30A8F38DE690E00E9455031E
:0E05DA0090936B0080936A0010926000089569
:1005E80087B1806487B987B18E7F87B987B18D7FDE
:1005F80087B987B18B7F87B987B1877F87B987B17B
:100608008F7E87B987B18F7D87B986B1816086B9BA
:1006180086B18D7F86B986B18B7F86B986B18068B1
:0406280086B90895F2
:10062C0057FD9058440F551F59F05F3F71F0479597
:10063C00880F97FB991F61F09F3F79F0879508957C
:10064C00121613061406551FF2CF4695F1DF08C09B
:10065C00161617061806991FF1CF869571056105B8
:04066C000894089551
:100670008EBB9FBB6DBB0FB607FE06C08FB78F77D3
:100680008FBF21E030E002C020E030E08CB3846016
:100690008CBB8CB382608CBBE199FECF21303105DD
:0A06A00019F48FB780688FBF08952A
:1006AA00BC0190E020E030E00BC0E92FF0E0EE0F53
:1006BA00FF1FE60FF71F40815181240F351F9F5FEF
:1006CA009A3098F3ADECBCEC0E9467049695879536
:0A06DA0096958795969587950895EB
:1006E40087B38B7F87BB87B38D7F87BB87B3877FB8
:1006F40087BB88B3846088BB88B3826088BB88B3B7
:10070400886088BB8FB780688FBF84B7806484BFDC
:080714008BB780628BBF0895D2
:10071C002091600030E0220F331F820F931FFC01E9
:10072C0071836083809160008F5F809360008A305A
:08073C0011F410926000089511
:1007440097FB072E16F4009407D077FD09D00E947A
:10075400B60307FC05D03EF4909581959F4F08950C
:08076400709561957F4F089527
:10076C00AA1BBB1B51E107C0AA1FBB1FA617B707CB
:10077C0010F0A61BB70B881F991F5A95A9F78095E7
:08078C009095BC01CD01089518
:100794000E943A0280916300813021F030F082306F
:1007A40039F0F8CF0E945001F5CF0E948E04F2CFA9
:0607B4000E94C400EFCF1B
:1007BA008EB588608EBD1BBC82E68ABD8EB581600F
:1007CA008EBD8EB58D7F8EBD8EB584608EBD8FB782
:0607DA0080688FBF089546
:1007E00096B391FB882780F991FD0AC0E7EAF1E60C
:1007F0003197F1F700C00000B19903C081E008957E
:0408000080E00895F7
:1008040096B393FB882780F993FD0AC0E7EAF1E6E3
:100814003197F1F700C00000B39903C081E0089557
:0408240080E00895D3
:10082800813039F488B3806488BB88B38F7788BBFC
:100838000895823031F488B3806888BB88B38F7B91
:0408480088BB0895CC
:10084C0083B7886083BF8AEF8CBF83B7816083BF17
:10085C0083B7846083BF8FB780688FBF89B782608E
:04086C0089BF0895A3
:10087000092E0394000C11F4882352F0BB0F40F4AE
:10088000BF2B11F460FF04C06F5F7F4F8F4F9F4FEE
:020890000895C9
:1008920086B1806486B9349BFECF34B185B190E0D5
:0E08A200982F882726B1206126B9832B089550
:1008B0001F920F920FB60F9211248F9381E08093B5
:0E08C00061008F910F900FBE0F901F90189542
:1008CE00A29FB001B39FC001A39F700D811D112483
:0E08DE00911DB29F700D811D1124911D089572
:1008EC0085B78F7E85BF85B78F7D85BF85B78F7B9D
:0A08FC0085BF85B7806885BF0895A9
:100906008FEF81BB87B3806487BB87B3806887BB63
:060916000E94B3040895E5
:10091C000E9408050E94F7040E94EB040E94EF0459
:06092C000E94760408950C
:10093200EC010E940D050E940C05CE010E940E05DD
:06094200CE010E940A052F
:100948008EBB9FBB8CB381608CBB8DB390E0089548
:0E09580087B3816087BB88B38E7F88BB08950C
:0E09660088B38F7B88BB88B38F7788BB0895DA
:0E097400E894BB2766277727CB0197F90895F3
:0E09820000240A941616170618060906089592
:0E09900000240A941216130614060506089594
:0C099E008F579F4FFC01808182BB0895A1
:0C09AA0097F99F6780E870E060E0089516
:0809B60087B3806187BB08953F
:0809BE0087B3806287BB089536
:0809C60088B3806188BB08952D
:0809CE0088B3806288BB089524
:0809D60088B38F7E88BB0895F1
:0809DE0088B38F7D88BB0895EA
:0809E60088B3816088BB08950D
:0809EE0088B38E7F88BB0895D9
:0809F60089B7806189BF0895F3
:0809FE000E945A000C94380419
:060A06009FEF80EC089553
:040A0C000C94000046
:040A100012BA089579
:040A14000E945800E4
:020A180008953F
:020A1A0008953D
:020A1C0008953B
:0A0A1E003F065B4F666D7D077F6F9A
:00000001FF
